:020000040800F2
:10000000981D0020B902000811200008391F0008BF
:100010000D200008691B00082334000800000000C0
:10002000000000000000000000000000EB2B0008B2
:10003000191D00080000000009240008FD2C00081C
:10004000D3020008D3020008D302000801280008E8
:10005000D3020008D3020008D3020008D30200082C
:10006000D3020008D3020008D3020008D30200081C
:10007000D3020008D3020008D3020008D30200080C
:10008000D3020008D3020008D3020008D3020008FC
:10009000D3020008D3020008D3020008D3020008EC
:1000A000D3020008D3020008D3020008D3020008DC
:1000B000612D0008D3020008992D0008D302000822
:1000C000D3020008D3020008D3020008D3020008BC
:1000D000D30200080930000891300008D30200085C
:1000E000D3020008D3020008D3020008D30200089C
:1000F000D3020008D3020008D3020008D30200088C
:10010000D3020008D3020008D3020008D30200087B
:10011000D3020008D3020008D3020008D30200086B
:10012000D3020008D3020008D3020008D30200085B
:1001300000F002F800F0B0F80AA090E8000C824449
:100140008344AAF10107DA4501D100F0A5F8AFF226
:10015000090EBAE80F0013F0010F18BFFB1A43F0A5
:10016000010318475C5B00007C5B00000A444FF011
:10017000000C10F8013B13F0070408BF10F8014B06
:100180001D1108BF10F8015B641E05D010F8016B4B
:10019000641E01F8016BF9D113F0080F1EBF10F8AF
:1001A000014BAD1C0C1B09D16D1E58BF01F801CBD2
:1001B000FAD505E014F8016B01F8016B6D1EF9D555
:1001C0009142D6D37047000000230024002500266A
:1001D000103A28BF78C1FBD8520728BF30C148BFAA
:1001E0000B6070476E2900F01083702900F0858144
:1001F000662905F08380652905F08080672905F070
:100200007D806129AFF3008003681B0A28BF41F09D
:100210008001692900F0F680642900F0F3807529D7
:1002200000F0F0806F2900F00884782900F05181F7
:10023000E92900F0A383E42900F0A083F52900F068
:100240009D83EF2900F00584F82900F050810368B0
:10025000DB0928BF41F08001632900F01283732974
:1002600000F01783E32900F0C386F32900F0C88665
:10027000002070471FB500F07DFF04000020002122
:1002800005F010F8401C60600020002105F020F807
:10029000E0601FBD10B510BD00F047FF1146FFF72D
:1002A000E9FF03F023FC01F029F803B4FFF7F2FFA4
:1002B00003BC03F044F9000009488047094800479F
:1002C000FEE7FEE7FEE7FEE7FEE7FEE7FEE7FEE706
:1002D000FEE7FEE704480549054A064B7047000063
:1002E000012D00083101000898170020981D0020FA
:1002F0009819002098190020704700001CB50C4682
:10030000064B7B4469460090204600F098FA04466C
:100310000020694600F0A6FA20461CBD5F050000DB
:100320000FB4044910B503AA029800F0B7FA10BC44
:100330005DF814FB180000200FB41CB5084B06AA8A
:100340007B4469460090059800F079FA0446002045
:10035000694600F087FA20461CBC5DF814FB0000DB
:100360002105000070B5044685690068C10601D505
:10037000302600E02026C00707D070BDD4E9012157
:1003800030469047206A401C20626D1EF6D570BD35
:1003900070B5044685690078C00707D170BDD4E9FF
:1003A000012120209047206A401C20626D1EF6D556
:1003B00070BD70B50C460546012A05D02878800628
:1003C00000D5EA69002302E0012305E05B1C9342AB
:1003D00002D2E05C0028F9D1A869E618C01AA86129
:1003E000286A184428622846FFF7BCFF04E0D5E9D4
:1003F000012114F8010B9047B442F8D32846FFF7C7
:10040000C7FF70BD2DE9F04106460024106875292C
:10041000314616A510D000F08DF9002802DA4042CE
:1004200013A507E031688A0701D512A502E0490744
:1004300004D511A5012401E000F085F900210A226C
:1004400006F1240709E0B0FBF2FCB0FBF2F302FB7B
:100450001C00303078541846491C0028F3D123463C
:100460002A463046BDE8F04100F076B900000000B1
:100470002D0000002B00000020000000F0B40D460D
:100480000188090502D5214C7C4402E01F4C7C44C4
:100490000E34002100F1240608E002F00F071209D3
:1004A000E75D42EA03721B097754491C52EA0307CD
:1004B000F3D102780023120704D5702D06D009B1BC
:1004C000022311342246F0BC00F046B90123103457
:1004D000F8E770B504460D462146106800F033F980
:1004E000024629462046BDE870400023C6E7D21DDB
:1004F00022F00703D3E90023C0E70368126843F042
:10050000200303600823C3610023B7E7A45600005B
:100510002DE9F05F894604464FF0000ADFF874B118
:10052000FB44C0F820A02046E1688847002874D02A
:10053000252806D0D4E901219047206A401C20627A
:10054000F1E700265F462046E168884720280546F7
:1005500007DB312D05D2781910F8200C08B10643BD
:10056000F1E7B00701D526F00406C4F81CA0002767
:10057000C4F818A02A2D09D0284602F0D9FF38B3B4
:1005800004EB8708303DC8F8185019E059F8041BEF
:10059000204604EB87029161E1688847012F0546F8
:1005A00018D1E069002820DA26F020061DE0D8F8EE
:1005B000180000EB800005EB40003038C8F8180048
:1005C0002046E1688847054602F0B2FF0028EED1D8
:1005D000012F0AD02E2D08D12046E16888477F1CC4
:1005E0000546022F46F02006C4DBA069002803DA86
:1005F000404246F00106A061F00701D026F0100647
:100600006C2D0BD0682D09D04C2D39D06A2D35D0EA
:10061000742D35D07A2D33D016E038E0E1682F46BE
:1006200020468847B842054609D16C2F26D04FF4A2
:100630008060E168064320468847054604E06C2F49
:100640001AD04FF4807006430DB3A5F1410019286C
:1006500002D8203546F400664A46294620462660E0
:100660004E46FFF7BFFD80B101280BD0F61D26F0E6
:10067000070000F1080956E74020E4E78020D8E7AA
:100680000020D6E706F104094DE7284652E7206A24
:10069000BDE8F09F3456000070B5064600F046F8FD
:1006A0000468054630460A22002100F0DDF92C607E
:1006B00070BD0000014A00F00FBA000028060020BB
:1006C00030B505460B462A4613F8014B12F8010BCC
:1006D00008B1A042F8D01CB1002802D06D1CF1E78F
:1006E000284630BD10B5431C02E010F8011B71B163
:1006F0008107FAD14FF0013202C88C1A8C4314EAF8
:10070000C211F9D0C01A0A0603D0C01E10BDC01A0B
:1007100010BD0A0401D0801E10BD0902FCD0401E8D
:1007200010BD704770477047704700000048704721
:100730003817002009684A0501D540B27047C9053D
:10074000FCD500B2704709684A0501D5C0B27047B0
:10075000C905FCD580B270472DE9F0470D46994692
:100760009246044600F124080168880604D5E06931
:1007700021F01001216000E00120A84201DD471BAB
:1007800000E00027A1697A1902EB0900081AA061AC
:100790002078C00602D42046FFF7E4FD002608E0DA
:1007A000D4E901211AF806009047206A401C761C03
:1007B00020624E45F4DB2078C0060AD52046FFF7BC
:1007C000D1FD06E0D4E9012130209047206A401C89
:1007D0002062381EA7F10107F4DC07E0D4E901210B
:1007E00018F805009047206A401C2062281EA5F1D9
:1007F0000105F3DC2046FFF7CBFD2078000602D58B
:100800000220BDE8F0870120FBE711680268006A5A
:10081000530501D508700AE0D30501D5088006E02C
:10082000130603D5C217C1E9000200E008600120E9
:100830007047000001694A1C02610878704700B5E2
:100840008FB0CDE901310021059105497944CDE909
:10085000031011466846FFF75BFE0FB000BD0000B5
:10086000E5FFFFFF0A6802F8010B0A60704710B548
:10087000436913B1AFF3008001E0FFF79AFD012057
:1008800010BD127800F124010A7000224A70012282
:10089000EDE711684FF0FF32E9E70000074B70B554
:1008A0000D467B44FFF7CBFF0446284600F0FBFBD8
:1008B00010B14FF0FF3070BD204670BD2B320000EC
:1008C0002DE9FF5F15468A460446DFF8AC80F84400
:1008D0000027D8E900103E46CDE9001010E03AF8B4
:1008E00016106A4602A800F0E2FB411C07D02178EE
:1008F000890603D5E269391891420DD80744761C60
:100900002078800602D5E069B84205DDAE42E6DB1C
:100910003AF816000028E2D1A069C01BA061204669
:10092000FFF720FDD8E90010CDE90010002017E006
:100930003AF818106A4602A800F0B9FBB0F1FF3F80
:1009400081460BD000250DF1080B05E0D4E901210B
:100950001BF8050090476D1C4D45F7D308F10100C9
:10096000B0428046E4DB206A384420622046FFF72C
:100970000FFDBDE8FF9F00009A5200002DE9F041F5
:100980008046D21D22F007020025D2E90002F52997
:1009900015A614D0011E72F1000106DA0023D0EB77
:1009A000030063EB020211A608E0D8F800108B07E1
:1009B00001D50FA602E0490701D50EA60125114673
:1009C000002408F1240704E000F0B4F830323A556E
:1009D000641C50EA0102F7D12B46324621464046BC
:1009E000BDE8F041FFF7B8BE000000002D00000098
:1009F0002B0000002000000030B4002100F124048E
:100A000008E002F00705D208303542EA4372DB08FD
:100A10006554491C52EA0305F3D10468002310A26F
:100A2000250707D5A40600D421B1C46901230DA26E
:100A3000641EC46130BCFFF78FBE10B5044621466A
:100A40001068FFF780FE02462046BDE810400023F4
:100A5000D2E7D21D22F00701D1E90023CCE7000044
:100A600000000000300000002DE9F04791460F46DD
:100A700080460446002614F8015B2DB100F052F8C0
:100A80000068405DC007F6D12B2D02D02D2D18D067
:100A9000641E4A463946204600F0B6FA27B1396846
:100AA000A14201D1C7F800804FF0020471050BD5B7
:100AB0004042002803DDFFF739FE0460A007BDE8CF
:100AC000F08746F48066E4E70028F8DAFFF72EFEA8
:100AD00004606FF00040F2E72DE9F04115460E4644
:100AE000040002D12C6804B90BA4204600F00FFBCF
:100AF0000444207870B127463146384600F0F7FAB2
:100B00000444207810B1002004F8010B38462C6012
:100B1000BDE8F0810027F9E70000000000487047B9
:100B20003817002010B500F025FB001D10BD00BFD8
:100B30007547000030B5B0F10A024FEA900E71F12E
:100B400000034EEA817EB0EB0E0061EB91014FEAAB
:100B5000101E4EEA017E10EB0E0041EB11114FEA20
:100B6000102E4EEA016E10EB0E0041EB11214FEA00
:100B7000104E4EEA014E10EB0E0041EB11414018B1
:100B800041F100014FEAD00040EA41704FEAD10143
:100B900010EB80054FEA810444EA907444EB0104B1
:100BA0006D1944EB0404521BA3414FF0000348BFEE
:100BB0000A3200D530BD401C41F1000130BD704704
:100BC0002DE9FF4F0C461E464FF0FF378BB0D2E9A0
:100BD0000001DDF860800A908A46C1F30A5505B924
:100BE0003D46002108464FF00000BAF1000F00F426
:100BF000400005DA00EB80004FF4400101EA5000AC
:100C00004FEA9059B9F1010F00DDB9460A9850EA50
:100C10004A000ED044F61050A5F2FF3545432F147C
:100C2000B8F1000F1ED07542291E1EDDC9F1000269
:100C30001CE0B8F1010F4FF0000001D0302103E0BB
:100C4000F24305E02154401CB042FBDB3046002259
:100C5000002121540B99C1F80880C1E900200FB090
:100C6000BDE8F08FBD1B6D1CDEE74A4600DA694225
:100C700006A800F0D1FA06AB93E8070003AB83E8BF
:100C8000070050460A9900F083FB8DE80700A0F5A5
:100C900000501F3800900398002D0ADD42F21F011A
:100CA0004A460844002303A90390684600F0ECFD7F
:100CB00009E0A0F500504A461F38002303A903901D
:100CC000684600F0F6FD8DE807000004000C03D034
:100CD0004FF0FF30410800E01046B8F1000F03D09C
:100CE0000022009215461EE0751E05D4FFF722FF74
:100CF000303262556D1EF9D5B3460122084302D049
:100D000000227F1C04E02078302801D100227F1EC1
:100D1000002A099784D01DE0112D07DAFFF70AFF9A
:100D2000303262556D1C50EA0102F5D1084302D001
:100D30000098C8B10EE00021681E05E0235C625CEB
:100D400063542254401E491C8142F7DBAB46A81B6A
:100D5000401E0990002004F80B000B98099AC0F877
:100D60000880C0E9002B7AE711264FF0000857E70A
:100D70002DE9F04F88460446D21D22F0070191B0BC
:100D8000D1E90001CDE90A0102F0BEFB02460B9851
:100D9000C00F01D02D2007E02068810701D52B204E
:100DA00002E0202101EAC000032A099001D0072AAD
:100DB00005DB03464146204600F0E0F90BE12078D0
:100DC000800601D5E06900E00620B8F1650F814694
:100DD00006D0B8F1660F18D0B8F1670F70D131E0C6
:100DE0000020B9F1110F009001DB112301E009F19E
:100DF00001030AAA01A90CA8FFF7E2FEDDE90C70C5
:100E0000002609F10105834647E001204B4600908A
:100E10004FF000470AAA01A90CA8FFF7D1FEDDE9AF
:100E20000DB00C995D46002610B909F101000D18AE
:100E3000B9EB050003D4C0F1FF3609F10105A5EBBC
:100E400009002BE0B9F1010F01DA4FF00109002090
:100E5000B9F1110F0090484601DD112300E003466F
:100E60000AAA01A90CA8FFF7ABFEDDE90C704D46FC
:100E700000268346207800070AD4AB4500DA5D4699
:100E800001A8012D04DD411911F8011C302907D0FA
:100E90004F4502DA17F1040F04DA012082460FE011
:100EA0006D1EEEE7002F02DCED1B3E4403E0781CD4
:100EB000A84200DD7D1CB81B00F1010A4FF000477D
:100EC0002078000703D4AA4501DB4FF0FF3A002148
:100ED000B7F1004F0DF143088DF8431024D00220E4
:100EE0002B23002F01DA7F422D230A21021EA0F1BD
:100EF000010000DC5FB197FBF1FC97FBF1F201FB15
:100F00001C7C17460CF1300C08F801CDEEE7A8F177
:100F1000010003702188090501D5452100E0652104
:100F2000A0F1010800F8011C09980FA9A1EB08071E
:100F3000FF1D00B10120411901EBEA70A16938449D
:100F4000081A401EA0612078C00602D42046FFF790
:100F500009FA099828B1D4E901219047206A401C78
:100F600020622078C00622D52046FFF7FBF91EE05C
:100F7000002E04DBB34502DD01A8805D00E03020D7
:100F8000D4E901219047206A401C2062761CAAF116
:100F900001005FEA000A0AD100F0ECF8C0680168BD
:100FA000405CD4E901219047206A401C2062281E41
:100FB000A5F10105DCDC07E0D4E9012118F8010BFB
:100FC0009047206A401C2062381EA7F10107F3DC1D
:100FD0002046FFF7DDF9032011B041E610B5436963
:100FE00013B1AFF3008001E0FFF76AFC012010BDF0
:100FF000128800F1240182840022C2840122EDE7DC
:1010000011684FF0FF32E9E72DE9F05F824615469F
:101010008B4600270AF10104B9460078302801D038
:101020009DB113E014F8010B0127782803D058284C
:1010300001D045B10AE00DB1102D07D1002714F8F9
:10104000010B102502E0082500E00A250026B04625
:101050000EE005FB080005FB06F101271FFA80F8EA
:1010600001EB1046B6F5803F00D3B94614F8010BEA
:10107000294600F0C3F80028EBDABBF1000F05D0D9
:101080000FB1641E00E05446CBF80040B9F1000FE8
:1010900006D0FFF74BFB02210160C81EBDE8F09FA0
:1010A00048EA0640FAE7007B00F08000704770B520
:1010B00016460C460546FFF735FD036893F8010117
:1010C000012806D0FF2C0FD8185D68B101202C70C4
:1010D00070BDD3F807013246214603F207130344DB
:1010E0002846BDE8704018474FF0FF3070BD30B55E
:1010F00003461D781DB10A4603E0AC4201D1181A1F
:1011000030BD12F8014B002CF7D15B1CF1E730B574
:1011100003461D783DB10A4612F8014B1CB1AC42A2
:10112000FAD15B1CF5E7181A30BD7546FFF7F6FCDF
:10113000AE4605006946534620F00700854618B0C4
:1011400020B5FFF7C7F8BDE820404FF000064FF08C
:1011500000074FF000084FF0000B21F00701AC46EC
:10116000ACE8C009ACE8C009ACE8C009ACE8C0090B
:101170008D46704700487047581700202DE9F04110
:101180001F46044603260168072A01F4006004DBB9
:1011900008B116A505E016A503E008B115A500E005
:1011A00015A521F010002060A069C01EA0610FB13C
:1011B000401EA0612046FFF7D5F84FB1D4E90121C8
:1011C00038469047206A401C2062C01C206206E01E
:1011D000206AFAE7D4E9012115F8010B9047761E41
:1011E000F8D22046FFF7D4F8BDE8F0814E414E001A
:1011F0006E616E00494E4600696E66003A2800D264
:10120000303820F02002412A01D3A2F13700884271
:1012100001D34FF0FF3070472DE9F0478146164665
:101220008AB0354878440DC88DE80D0032487844BE
:10123000801C03AC0DC884E80D0041F69B300844C7
:10124000372190FBF1F290FBF1F5A5F1800501FB50
:1012500012041B3C02D56442012000E00020DFF8AC
:1012600098A080460027FA44AAF1BE0A0EE0E007E3
:101270000AD03246684607EB470101230AEB810199
:1012800000F017FB8DE8070064107F1C002CEED1E6
:10129000194F7F44AE3F19E0E80715D007EB041063
:1012A0000DF1180A90E80E008AE80E00C068F042BE
:1012B00001D1981908903246012306A903A800F02D
:1012C000F8FA03AB83E807006D10641C002DE3D12E
:1012D0004FF0010332466946B8F1000F03A802D06F
:1012E00000F0D2FA01E000F0E4FAC9E90001C9F81F
:1012F00008200AB0BDE8F087C849000010B50446D0
:10130000AFF300802046BDE81040FEF7CEBF0000DE
:101310004FF0013C50F8042B51F8043B9A4221D184
:10132000A2EB0C03934313EACC1317D150F8042B10
:1013300051F8043B9A4215D1A2EB0C03934313EAF4
:10134000CC130BD150F8042B51F8043B9A4209D12D
:10135000A2EB0C03934313EACC13DBD04FF0000055
:10136000704700BFD01A01BAB1FA81F101F018013B
:1013700022FA01F0CB40C1F12001DBB2C0B2C01AA9
:101380002CFA01F3D11A914311EAC311E6D1704747
:101390005FEA400C08BF91F0000F4FEA8C234FEA40
:1013A000C12243EA51514FEA1C5018BF00F5F040EA
:1013B0004FEA300018BF41F000415FEA6C5C00F07A
:1013C0002980BCF1FF3F08BF40F080407047130CFC
:1013D00006BF12044FF0100C4FF0000C130E04BFA8
:1013E00012020CF1080C130F04BF12010CF1040CD3
:1013F000930F04BF92000CF1020CD30F04BF5200F4
:101400000CF1010C11464FF00002A0F11F00A0EBFF
:101410000C00704711F0004F08BF704731F00041D9
:101420003FF4D5AF0B0C06BF09044FF0100C4FF082
:10143000000C0B0E04BF09020CF1080C0B0F04BFCB
:1014400009010CF1040C8B0F04BF89000CF1020C94
:10145000CB0F04BF49000CF1010CCCF12003A0EB31
:101460000C0022FA03F302FA0CF241EA030100F144
:101470000100704720F07F4C80EA030023F07F4793
:10148000ACEB070303F57C5300F0004003F1FF03CE
:101490002DE980494FEA154B09B44FEA144325EA78
:1014A0000B4E24EA03480FF2042606EB13274908E3
:1014B0003E785FEA320203FB0667C7F5000707FBC9
:1014C00006F64FEA54374FEAD64606F1020607FB06
:1014D000066CCCF1005C4FEA1C472CEA074C07FB7A
:1014E00006F40CFB06F504EB15464FEA961634BFDE
:1014F00000204FF000404FEAD13706FB07FC4FEACF
:101500001C4C0CFB0BF7D21B03FB0CF761EB070128
:101510000CFB0EF7B0EB074072EB17420CFB08F721
:1015200034BFA2EB0742B2EB074261EB17414FEA2F
:101530000C444FEA910706FB07FC4FEA1C4C0CFBDE
:101540000BF7B0EBC74072EB573203FB0CF734BF1D
:10155000A2EBC742B2EBC74261EB57310CFB0EF76F
:10156000B0EBC70072EB57720CFB08F734BFA2EB6D
:10157000C702B2EBC70261EB5771039F4FEA81616B
:1015800041EA921104EBCC044FEAD1374FEA826270
:1015900006FB07FC42EA90124FEA80604FEA1C4CBF
:1015A0000CFB0BF7D21B03FB0CF761EB07010CFBE9
:1015B0000EF7B0EB074072EB17420CFB08F734BF95
:1015C000A2EB0742B2EB074261EB17414FEA8C55A1
:1015D0004FEA910704EB9C2406FB07FC4FEA1C4CE6
:1015E0000CFB0BF7B0EBC74072EB573203FB0CF769
:1015F00034BFA2EBC742B2EBC74261EB57310CFBE1
:101600000EF7B0EBC70072EB57720CFB08F734BF54
:10161000A2EBC702B2EBC70261EB577115EB4C2589
:101620004FEA816141EA92114FEA82624FEAD13773
:1016300042EA901206FB07FC44F100044FEA806086
:101640004FEA1C4C0CFB0BF7D21B03FB0CF761EBB6
:1016500007010CFB0EF7B0EB074072EB17420CFBD7
:1016600008F734BFA2EB0742B2EB074261EB174128
:1016700015EB1C154FEA813141EA92414FEA823263
:1016800042EA90424FEA80304FEA0C7644F100047F
:1016900048EA03434EEA0B484FF0000EB2EB080C49
:1016A00071EB030724BF624639464EEB0E0E4FF036
:1016B000000B0018524149414BEB0B0BB2EB080CED
:1016C00071EB03077BF1000B24BF624639464EEBFA
:1016D0000E0E4FF0000B0018524149414BEB0B0B23
:1016E000B2EB080C71EB03077BF1000B24BF6246E1
:1016F00039464EEB0E0E51EA020718BF46F00106BE
:1017000016EB0E7655F1000254F1000103D5BDE849
:101710008901BDE80088BDE88901BDE80048B61927
:10172000524141EB0101A3F10103704780807F7EAC
:101730007D7C7B7A79787776767574737271717047
:101740006F6E6E6D6C6C6B6A6A69686867666665F9
:101750006464636362616160605F5F5E5E5D5D5C87
:101760005C5B5B5A5A5959585857575656555555F8
:101770005454535352525251515050504F4F4F4E58
:101780004E4D4D4D4C4C4C4B4B4B4A4A4A494949A6
:1017900048484847474747464646454545444444E8
:1017A000444343434342424242414141002B9C4611
:1017B00030D477002BD01CB54FEA370703B44FF075
:1017C00010004FF01001BAF1000F06D0BCF1000F6D
:1017D000DCBF40F0080040F008014FF000000FBCF3
:1017E000BDE810400BF1010BBBF1010F08BF5FEA30
:1017F000170722BF12F1010211F101014FF0004160
:1018000043F1000300F0004043EA00007047F9D3C1
:101810005708D0E746EA064613F1400F4FEA16464E
:101820001FDD13F1200FDFBF16430A4600212033CE
:101830005B42BED0C3F1200746EA064602FA07F72C
:101840004FEA164646EA0706C3F1200722FA03F2DA
:1018500001FA07F721FA03F14FF0000342EA070209
:10186000A7E746EA020646EA06464FEA164646EA71
:101870000106BCBF46EA0646360C4FF000034FF0A7
:1018800000024FF0000194E72DE9804C9A46934600
:1018900070B491E8380007C831EA400C48BF34EA18
:1018A000430C03D5FFF7E6FDFFF780FFF0BCBDE872
:1018B000008C2DE9804C9A46934670B491E838002C
:1018C00007C810F0804F08BF13F0804F03D100F01D
:1018D00005F8FFF76BFFF0BCBDE8008C20F07F47F8
:1018E00080EA030023F07F4C07EB0C03A3F57C5345
:1018F00000F00040A3F1FE0392F0000F00F0B3806F
:1019000095F0000F00F077802DE901494FEA114072
:101910004FEA144621EA004800FB06FC24EA064789
:1019200008FB06F607FB08F800FB07F718EB06486C
:101930004CEB164C4FEA124B18EB07484FEA154692
:101940004CEB174022EA0B4E0BFB06FC25EA064740
:101950000EFB06F607FB0EFE0BFB07F71EEB064E13
:101960004CEB164C4FF000061EEB074E4CEB174BA2
:1019700018EB0B0840F1000018EB0E0B58EB0008B9
:1019800040F100008F1A4FF000013CBFC943661BB5
:1019900014BFB5EB040C00213CBFC943F61B4FEA52
:1019A00017444EEA8E0E27EA04454FEA1C4704FB13
:1019B00007622CEA074C05FB07F70CFB05F604FB56
:1019C0000CFC16EB074642EB174216EB0C4642EBBB
:1019D0001C421BEB060658EB0202414146EA9E06FA
:1019E00001D5BDE80189B619524141EB0101A3F1CE
:1019F0000103BDE801894FEA14454FEA114724EA83
:101A0000054621EA074C05FB07F406FB07F70CFB2C
:101A100006F105FB0CFC11EB074144EB17444FEAC0
:101A2000124711EB0C4144EB1C4422EA074C05FB26
:101A300007F206FB07F70CFB06F605FB0CFC16EBA2
:101A4000074642EB174216EB0C4642EB1C456A1860
:101A500054F1000148BF7047B619524141EB0101F2
:101A6000A3F10103704795F0000F37D04FEA114200
:101A70004FEA144721EA024624EA074C02FB07F129
:101A800006FB07F70CFB06F402FB0CFC14EB074407
:101A900041EB17414FEA154714EB0C4441EB1C4155
:101AA00025EA074C02FB07F506FB07F70CFB06F6D9
:101AB00002FB0CFC16EB074645EB174516EB0C46F4
:101AC00045EB1C42121951F1000148BF7047B6198D
:101AD000524141EB0101A3F1010370474FEA144564
:101AE0004FEA114724EA054621EA074C05FB07F1B6
:101AF00006FB07F70CFB06F24FF0000605FB0CFC9B
:101B000012EB074241EB174112EB0C4251EB1C4127
:101B100048BF7047921841EB0101A3F101037047E0
:101B200010B5012000F0C2FC002000F0BFFC10BD89
:101B300008B5014600200090034800900098084432
:101B400000900098008808BD006C004008B5002295
:101B50000092044A0092009A02440092009A116096
:101B600008BD0000006C004000BFFEE721B1026824
:101B700042F00102026004E002684FF6FE731A4070
:101B80000260704701684FF6FE721140016000214B
:101B9000016041608160C1604B49884208D14A4977
:101BA0000839496841F00F01474A083A51608AE014
:101BB00045491431884208D143490839496841F000
:101BC000F001414A083A51607DE03F49283188429E
:101BD00008D13D490839496841F470613A4A083AE8
:101BE000516070E038493C31884208D136490839A3
:101BF000496841F47041344A083A516063E032491F
:101C00005031884208D130490839496841F470217F
:101C10002D4A083A516056E02B496431884208D178
:101C200029490839496841F47001274A083A516046
:101C300049E025497831884208D123490839496863
:101C400041F07061204A083A51603CE01F498842E7
:101C500006D1011F096841F00F01021F116032E037
:101C60001A491431884208D11849091F096841F0FE
:101C7000F001164A121F116025E0144928318842EC
:101C800008D11249091F096841F470610F4A121FF7
:101C9000116018E00D493C31884208D10B49091FF9
:101CA000096841F47041094A121F11600BE00749AD
:101CB0005031884207D10549091F096841F4702154
:101CC000024A121F116070470800024008040240D7
:101CD0000146486880B2704710B50022026847F696
:101CE000F0739A430C6A8B6823430C6923434C6955
:101CF00023438C692343CC6923434C6A23438C6A76
:101D000023431A430260CB6843600B6883604B68CF
:101D1000C36010BD416070477047000030B5044695
:101D200004254FF4302000F065F80546042D17D146
:101D30000C48006940F002000A4908610846446105
:101D4000006940F0400008614FF4302000F052F884
:101D500005460448006941F6FD71084001490861E3
:101D6000284630BD0020024004200B49C96801F01C
:101D7000010109B101200EE00749C96801F0040121
:101D800009B1022007E00449C96801F0100109B156
:101D9000032000E0042070470020024070B5044694
:101DA0000D460426F00200F025F80646042E11D157
:101DB0000948006940F00100074908612580F002E8
:101DC00000F018F806460448006941F6FE71084024
:101DD00001490861304670BD0020024002480349B5
:101DE000486003484860704723016745002002406F
:101DF000AB89EFCD00B502460423FFF7B5FF0346DC
:101E000003E0FFF7B1FF0346521E012B01D1002A68
:101E1000F7D102B90523184600BD2DE9F04102466D
:101E200000250026002000230024002791F803C08D
:101E30000CF00F0591F803C00CF0100CBCF1000F72
:101E400003D091F802C04CEA050591F800C0BCF13E
:101E5000000F31D0146800202BE04FF0010C0CFA79
:101E600000F3B1F800C00CEA03069E4220D18300C3
:101E70004FF00F0C0CFA03F7BC4305FA03FC4CEAD5
:101E8000040491F803C0BCF1280F06D14FF0010CF7
:101E90000CFA00FCC2F814C00AE091F803C0BCF1CF
:101EA000480F05D14FF0010C0CFA00FCC2F810C02D
:101EB000401C0828D1D31460B1F800C0BCF1FF0F5A
:101EC00034DD546800202EE000F1080C4FF00108CA
:101ED00008FA0CF3B1F800C00CEA03069E4221D1C7
:101EE00083004FF00F0C0CFA03F7BC4305FA03FC18
:101EF0004CEA040491F803C0BCF1280F05D100F1AD
:101F0000080C08FA0CF8C2F8148091F803C0BCF170
:101F1000480F07D100F1080C4FF0010808FA0CF83F
:101F2000C2F81080401C0828CED35460BDE8F08170
:101F3000416170470161704700BFFEE710B5402165
:101F40000748FFF7F7FF80210548FFF7F3FF8021DF
:101F50000348FFF7EDFF40210148FFF7E9FF10BDFF
:101F60000008014010B540210548FFF7E3FF80213C
:101F70000348FFF7DDFF80210148FFF7DBFF10BDBD
:101F80000008014010B540210348FFF7D3FF40216E
:101F90000148FFF7CDFF10BD000801400146CA17F8
:101FA00001EB92729210A1EB820292B9642091FB34
:101FB000F0F200FB121050B94FF4C87091FBF0F230
:101FC00000FB121008B9012070470020FCE7012037
:101FD000FAE70020F8E7000008B50121082000F02A
:101FE00045FA2020ADF8000010208DF803000320F2
:101FF0008DF8020069460448FFF70FFF20210248D0
:10200000FFF798FF08BD0000000C014000BFFEE78D
:102010007047000070B5002100230F22C47804B37C
:10202000154C246804F4E064C4F5E064210AC1F1AD
:102030000403CA40447804FA03F18478144021432D
:1020400009010E4C0678A155047804F01F050124FF
:10205000AC4005786D11AD0005F1E025C5F80041F3
:1020600009E0047804F01F050124AC40044D067813
:10207000761145F8264070BD0CED00E000E400E06C
:1020800080E100E002490143024A1160704700000C
:102090000000FA050CED00E070B5002418E004F132
:1020A000B000002100F09DF90021084600F099F9E8
:1020B0000021102000F095F9002505E00121002005
:1020C00000F08FF9681CC5B2802DF7DB601CC4B22C
:1020D000082CE4DB70BD000008B50121042000F0ED
:1020E000C5F9C020ADF8000010208DF803000320D2
:1020F0008DF8020069463C48FFF78FFEC0213A4840
:10210000FFF718FF4FF4487001F0BCFC0021AE202F
:1021100000F067F90021084600F063F90021102063
:1021200000F05FF90021402000F05BF90021B020B1
:1021300000F057F90021812000F053F90021FF2021
:1021400000F04FF90021A12000F04BF90021A6205A
:1021500000F047F90021A82000F043F900213F20BA
:1021600000F03FF90021C82000F03BF90021D32006
:1021700000F037F90021084600F033F90021D5209E
:1021800000F02FF90021802000F02BF90021D82049
:1021900000F027F90021052000F023F90021D920C3
:1021A00000F01FF90021F12000F01BF90021DA20D6
:1021B00000F017F90021122000F013F90021DB20B4
:1021C00000F00FF90021302000F00BF900218D20E4
:1021D00000F007F90021142000F003F90021AF20DE
:1021E00000F0FFF808BD00000008014070B504468B
:1021F0000D4605F1B000002100F0F3F8102141EA8E
:102200001410002100F0EDF804F00F00002100F0A0
:10221000E8F870BD2DE9F04180460E4615460027CE
:1022200031464046FFF7E2FF00240AE0124A02EB83
:102230008511085D012100F0D4F8781CC7B2601C3C
:10224000C4B2102CF2DB701CC1B24046FFF7CEFFC7
:1022500000240CE06900491C074A02EB4111085DAB
:10226000012100F0BEF8781CC7B2601CC4B2102C6B
:10227000F0DBBDE8F0810000340000202DE9F047DC
:1022800007460E469046994600250024A8F12000F6
:10229000C5B27F2F02DD0027B01CC6B2B9F1100F06
:1022A00024D131463846FFF7A1FF002408E004EBB3
:1022B0000511194A505C012100F093F8601CC4B26A
:1022C000082CF4DB701CC1B23846FFF78FFF0024E6
:1022D00009E004EB051108310F4A505C012100F0C0
:1022E00080F8601CC4B2082CF3DB12E0314638469B
:1022F000FFF77CFF00240AE005EB4501074A02EBEB
:102300004101085D012100F06CF8601CC4B2062C8C
:10231000F2DBBDE8F08700002855000800530008F4
:102320002DE9FF5F074691461E460E9D4FF0000ABD
:10233000002435E0301B401EC1B20A2001F012FC1F
:10234000B9FBF0F00A21B0FBF1F201FB1208BAF17F
:10235000000F14D1701EA04211DDB8F1000F0CD196
:10236000AB4605EBDB71491001FB0471C8B22B468B
:1023700020220199FFF782FF10E04FF0010AAB46DF
:1023800005EBDB71491001FB0471C8B208F13001A3
:10239000CAB22B460199FFF771FF00BF601CC4B29F
:1023A000B442C7DBBDE8FF9F2DE9F04104460F466C
:1023B0001546984600260FE0AA5D4346394620465A
:1023C000FFF75CFF04F10800C4B2782C02DD0024A2
:1023D000B81CC7B2701CC6B2A85D0028ECD1BDE81D
:1023E000F08170B504460D461DB1E0B201F076F8FB
:1023F00002E0E0B201F05CF870BD00000149086243
:102400007047000000000E427047000029B1064AE4
:1024100052690243044B5A6104E0034A5269824301
:10242000014B5A61704700000010024029B1064A72
:10243000D2690243044BDA6104E0034AD269824361
:10244000014BDA61704700000010024029B1064AD2
:1024500012690243044B1A6104E0034A1269824381
:10246000014B1A61704700000010024029B1064A72
:1024700092690243044B9A6104E0034A92698243E1
:10248000014B9A61704700000010024029B1064AD2
:10249000D2680243044BDA6004E0034AD268824304
:1024A000014BDA60704700000010024001490860EB
:1024B000704700004004424230B500210022002451
:1024C00000232D4D6D6805F00C0121B1042905D0C4
:1024D000082923D105E0294D056022E0274D05603C
:1024E0001FE0254D6D6805F47012234D6D6805F4ED
:1024F0008034022505EB92421CB9214D55430560FD
:102500000BE01D4D6D6805F400351DB11C4D5543A4
:10251000056002E0194D5543056002E0174D056066
:1025200000BF00BF144D6D6805F0F0010909154D9D
:102530006B5C0568DD4045600F4D6D6805F4E0613A
:10254000090A104D6B5C4568DD4085600A4D6D6879
:1025500005F46051C90A0B4D6B5C4568DD40C560F0
:10256000054D6D6805F44041890B074D6B5CC568EE
:10257000B5FBF3F5056130BD0010024000127A0092
:1025800000093D001E0000202E00002010B501466D
:102590000022002300204A11012A02D1094C23689D
:1025A00006E0022A02D1074C236A01E0054C636A67
:1025B00001F01F02012494401C400CB1012000E0F6
:1025C000002010BD0010024000210B4A11700A4A81
:1025D000203A82F82010012802D0042808D103E014
:1025E0000121054A117004E00521034A117000E041
:1025F00000BF00BF70470000201002400149086082
:10260000704700003C0442420249096A0143014A02
:102610001162704700100240024909888143014A53
:1026200011807047042800400348008840F01000E3
:1026300001490880704700000428004003480088D2
:102640004FF6EF71084001490880704704280040A8
:1026500070B500260024002500F07AF806463848B8
:10266000B6FBF0F437480088A0423CD035490C80D6
:1026700040F2B27510E02846FFF790FC40B1B4F587
:10268000B77F02D3A4F5B77404E0681C85B206E0F6
:10269000A4F26D14681C85B2B4F5B67FEBD800BF08
:1026A00029488580002516E027498888FFF776FCB1
:1026B00030B1012D04D11D2C01D31D3C09E00CE0EB
:1026C0002248405DA04203D82048405D241A00E023
:1026D00003E0681C85B21C2CE6D200BF681C1A49B6
:1026E0008871601CC8711648B6FBF0F100FB1164DC
:1026F0004FF46160B4FBF0F0134908704FF461606F
:10270000B4FBF0F100FB11403C21B0FBF1F00E49AD
:1027100048704FF46160B4FBF0F100FB11403C21C4
:10272000B0FBF1F201FB1200074988700B46DA7921
:102730009979988800F028F803490872002070BD44
:1027400080510100F4040020F80E0020245B0008F2
:10275000002103480188001F008841EA00407047BB
:102760001C28004001460020064A12880A40D0B2C8
:10277000044A121F12880A4012B108B1012000E079
:102780000020704704280040F0B503460C4615466B
:10279000642093FBF0F0C6B2642093FBF0F700FBDB
:1027A0001730C1B2132E02DD01F16400C1B2084638
:1027B000CF1701EB977701EBA707BAB2072092FB7F
:1027C000F0F700FB172082B25719601EDFF82CC00B
:1027D0001CF80000384482B2CF1701EB9777BF1086
:1027E000A1EB87071FB9032C01DA501E82B2072024
:1027F00092FBF0F700FB1720C0B2F0BD185B000899
:102800000EB50120FFF7AEFF08B1FFF721FF022050
:10281000FFF7A8FFA0B10220FFF7FEFEFFF718FFA9
:102820000A48807809494978084A1278CDE9002198
:1028300002900648C3798279818805A0FDF770FD72
:102840000520FFF7E9FE00F01BF90EBDF80E002091
:10285000416C61726D2054696D653A25642D256463
:102860002D25642025643A25643A25640A00000079
:1028700029B1064A12880243044B1A8004E0034A35
:1028800012888243014B1A807047000000280040E4
:102890002DE9FC4705460E4617469846DDE90A9A9B
:1028A000002401214FF0C050FFF7C0FD0120FFF7C9
:1028B000A5FD0420FFF73CF945F2510188423ED0C6
:1028C000FFF72EF90120FFF77FFE04E0601CC4B281
:1028D0000A2001F0D7F84120FFF758FE08B9FA2C7A
:1028E000F4DBFA2C02DB0120BDE8FC874FF480709A
:1028F000FFF78AFE0120FFF781FE00F0C1F800F02B
:10290000C9F801210846FFF7B3FF00F0B9F8FFF757
:102910008BFE47F6FF7000F0A3F800F0B1F84346D5
:102920003A4631462846CDE9009A00F027F8FFF7ED
:1029300085FE45F250010420FFF708F907E000F09A
:10294000A9F801210846FFF793FF00F099F800F07D
:1029500004F8FFF77DFE0020C6E708B503208DF8D8
:10296000000000208DF801008DF8020001208DF894
:1029700003006846FFF74EFB08BD00002DE9F05F3D
:1029800006460F4690469946DDE90AAB002440F220
:10299000B270864203DB40F63300864202DD01203E
:1029A000BDE8F09F40F2B2750AE02846FFF7F6FA5C
:1029B00010B12048044401E01F480444681C85B25B
:1029C000B542F2DB781EC7B2002510E01B48405D1F
:1029D00040F2A321484304EBC0143046FFF7DEFA6F
:1029E00018B1012D01D116480444681C85B2BD42BE
:1029F000ECDBA8F1010040F2A321484304EBC01432
:102A0000C9EB4910C0EB092004EB0014CAEB0A1013
:102A100004EB80045C4401214FF0C050FFF706FD39
:102A20000120FFF7EBFC204600F00CF800F028F83E
:102A30000020B5E70085E2018033E101245B000856
:102A40008051010000B50246FFF7EEFD100C03496E
:102A50000880091D0A80FFF7F1FD00BD182800401D
:102A600000B50246FFF7E0FDC2F3034003490880CA
:102A7000091D0A80FFF7E2FD00BD000008280040A4
:102A800000BF0348008800F020000028F9D07047FC
:102A900004280040074800884FF6F77108400549B0
:102AA000088000BF0348008800F008000028F9D023
:102AB000704700000428004030B503460C46154618
:102AC000002207E0184600F008F824F812009B1CCA
:102AD000501C82B2AA42F5DB30BD0146088870471F
:102AE0002DE9F05F80468A461746B8F1006F02D3A1
:102AF0003248804501D3BDE8F09FFFF76FF9A8F198
:102B0000006B4FEADB25CBF34909C9F58064A74286
:102B100000DC3C464DE04FF0006101EBC5204A145B
:102B20002749FFF7C9FF00260BE009EB06002449FF
:102B300031F810004FF6FF71884200D003E0701C9E
:102B400086B2A642F1DB00BFA6421BDA4FF000615D
:102B500001EBC520FFF7E2F8002608E03AF816007E
:102B600006EB0901164A22F81100701C86B2A64233
:102B7000F4DB4FF0006101EBC5204A14104900F06E
:102B800021F804E022465146404600F01BF8A742D7
:102B900000D10FE06D1C4FF000090AEB440AA0447D
:102BA000381B87B2B7F5806F02DD4FF4806400E018
:102BB0003C46B0E700BF00BF9DE7000000000108F1
:102BC0002C0F00202DE9F04105460E461746002443
:102BD00007E036F814102846FFF7E0F8AD1C601C3B
:102BE00084B2BC42F5DBBDE8F081704710B500F05F
:102BF00001F810BD0CB5002001900090334800682A
:102C000040F480303149086000BF3048006800F46B
:102C1000003000900198401C0190009818B901986C
:102C2000B0F5A06FF1D12948006800F4003010B170
:102C30000120009001E0002000900098012843D17D
:102C40002348006840F010002149086008460068E9
:102C500020F0030008600846006840F002000860A9
:102C60001A48406819494860084640684860084664
:102C7000406840F4806048600846406820F47C105A
:102C800048600846406840F4E8104860084600681C
:102C900040F08070086000BF0C48006800F00070D1
:102CA0000028F9D00948406820F00300074948602F
:102CB0000846406840F00200486000BF0348406892
:102CC00000F00C000828F9D10CBD000000100240F3
:102CD00000200240042808D14FF0E021096941F0AA
:102CE00004014FF0E022116107E04FF0E021096993
:102CF00021F004014FF0E02211617047704700009D
:102D000010B51348006840F00100114908600846FA
:102D10004068104908400E494860084600680E495E
:102D200008400B4908600846006820F480200860CD
:102D30000846406820F4FE0048604FF41F00886099
:102D4000FFF754FF4FF000600449086010BD000019
:102D5000001002400000FFF8FFFFF6FE08ED00E063
:102D600010B54FF08040008A00F0010048B10949D9
:102D70000869804700204FF0804188844FF47A70C2
:102D800088854FF08040008A20F001004FF080419C
:102D9000088210BD3405002010B50121084800F05C
:102DA00062F860B10748008840F400400549088097
:102DB0000121034800F048F8002000F031F810BD70
:102DC00000080040320000207FB505460C46012176
:102DD0000420FFF72BFBADF80450ADF800400020B5
:102DE000ADF80600ADF8020069460C4800F058F84E
:102DF00001221146094800F047F81E208DF80C000A
:102E000001208DF80D0002208DF80E0001208DF8B4
:102E10000F0003A8FFF7FEF87FBD00000008004088
:102E200010B5044644B10021064800F036F80121EF
:102E3000044800F00CF803E00021024800F007F815
:102E400010BD000000080040CA430282704721B153
:102E5000028842F00102028004E002884FF6FE730D
:102E60001A400280704730B502460020002300243B
:102E7000158A05EA0103958905EA010413B10CB12D
:102E8000012000E0002030BD1AB183890B4383810B
:102E900002E083898B4383817047818470470000FF
:102EA000002202881D4B98420ED01D4B98420BD039
:102EB000B0F1804F08D01B4B984205D01A4B984276
:102EC00002D01A4B984204D14FF68F731A404B88A8
:102ED0001A43174B984207D0164B984204D04FF62E
:102EE000FF431A40CB881A4302808B8883850B8866
:102EF00003850A4B98420BD0094B984208D00E4BE1
:102F0000984205D00D4B984202D00D4B984201D10A
:102F10000B7A03860123838270470000002C014056
:102F2000003401400004004000080040000C004054
:102F300000100040001400400040014000440140E7
:102F4000004801407FB505460C4601210846FFF7C1
:102F50006DFAADF80850ADF804400020ADF80A0055
:102F6000ADF8060001A94FF08040FFF799FF01225C
:102F700041218807FFF788FF1C208DF800000320FF
:102F80008DF801008DF8020001208DF803006846DD
:102F9000FFF740F801218807FFF759FF7FBD70B5A3
:102FA0008CB006460C46154601210846FFF72EFA5E
:102FB0003046FEF7E7FD01940295102003900020B3
:102FC00004900590802006900020079008900990BA
:102FD0004FF480500A9000200B9001A93046FEF774
:102FE0007BFE0CB070BD70B504460D460021204636
:102FF000FEF7BCFD29462046FEF78CFE0121204647
:10300000FEF7B4FD70BD000010B540F225511D481B
:1030100000F046F910B31B4800F0FEF9C4B21A489C
:10302000008800F40040C8B91748008800F48040C8
:1030300060B10A2C03D000201349088020E0124818
:10304000008840F400401049088019E00D2C06D19A
:103050000D48008840F480400B49088010E00A4881
:103060000088C0F30D0009490C5407480088401C33
:103070000549088008460088C72801DD002008802F
:1030800010BD0000003801401C0000202C0600206C
:1030900010B540F22551134800F002F908B3114869
:1030A00000F0BAF9C4B210480088B0F5806F12DAA7
:1030B00000210E48FFF7F1FE0B48008810B90120EF
:1030C000FFF7AEFE084801880088401C064A1080C1
:1030D0000748445405E00448008840F40040024991
:1030E000088010BD0044004032000020000800406D
:1030F000F80A002010B586B0044601210420FFF72D
:10310000B5F901214804FFF791F92E4800F07AF84B
:103110000420ADF8100003208DF8120018208DF85F
:10312000130004A92848FEF778FE0820ADF8100027
:1031300004208DF8130004A92348FEF76EFE0094C6
:103140000020ADF80400ADF80600ADF80800ADF8B9
:103150000C000C20ADF80A0069461A4800F0F0F89F
:1031600001228021174800F043F8184A1549091D2B
:103170001748FFF714FF0121124800F02DF8012233
:1031800040F225510F4800F0B5F826208DF81400C4
:1031900002208DF8150003208DF8160001208DF80F
:1031A000170005A8FEF736FF41F61F4140F2E73051
:1031B000FFF70AFE002007490880FFF731FE06B03E
:1031C00010BD00000044004000080140F806002047
:1031D000800002403200002021B1828942F4005276
:1031E000828104E082894DF6FF731A408281704724
:1031F0001AB1838A0B43838202E0838A8B438382E2
:103200007047000010B504462048844209D10121CE
:103210008803FFF73BF900214FF48040FFF736F9B0
:1032200032E01B48844209D101214804FFF70EF91E
:1032300000214FF40030FFF709F925E015488442DA
:1032400009D101218804FFF701F900214FF4802002
:10325000FFF7FCF818E01048844209D10121C804A6
:10326000FFF7F4F800214FF40020FFF7EFF80BE030
:103270000A48844208D101210805FFF7E7F8002138
:103280004FF48010FFF7E2F810BD00000038014055
:103290000044004000480040004C00400050004006
:1032A00070B50246002400230025002040F66A166F
:1032B000B14200D100BFC1F3421501F01F03012646
:1032C00006FA03F3012D02D19689334006E0022D60
:1032D00002D1168A334001E0968A33400C1201264F
:1032E00006FA04F41688344013B10CB1012000E052
:1032F000002070BDF0B50346002400260025002004
:1033000040F66A17B94200D100BF1846C1F3421413
:1033100001F01F06012707FA06F5012C01D10C3038
:1033200004E0022C01D1103000E014301AB107681B
:103330002F43076002E00768AF430760F0BD00005D
:103340002DE9F04786B005460E460024A24600BF90
:10335000A1460027B08900B100BF2F462C8A4CF649
:10336000FF700440F08804432C82AC894EF6F310C1
:103370000440B08831890843718908430443AC8113
:10338000AC8A4FF6FF400440B0890443AC8201A8E8
:10339000FFF792F81F48874202D1DDF810A001E044
:1033A000DDF80CA0A88900F4004040B10AEBCA0087
:1033B00000EB0A1031684900B0FBF1F807E00AEBB6
:1033C000CA0000EB0A1031688900B0FBF1F86420F4
:1033D000B8FBF0F004012009642101FB1089A889E1
:1033E00000F4004040B1322000EBC900B0FBF1F026
:1033F00000F00700044308E0322000EB09106421CC
:10340000B0FBF1F000F00F0004432C8106B0BDE8E2
:10341000F08700000038014001468888C0F30800AA
:10342000704700BFFEE7000008B501210820FFF744
:103430001DF84020ADF8000010208DF80300032097
:103440008DF8020069460448FEF7E7FC4021024877
:10345000FEF770FD08BD0000000C01402DE9F041B1
:1034600005462C4640211148FEF762FD002619E072
:10347000274607F08007802F04D180210B48FEF7F4
:1034800059FD03E080210948FEF752FD6006040E55
:1034900040210648FEF74EFD40210448FEF748FD56
:1034A000701CC6B2082EE3DBBDE8F08100080140C5
:1034B00010B50446FEF742FD7820FFF7CFFFFEF778
:1034C00061FD0020FFF7CAFFFEF75CFD2046FFF715
:1034D000C5FFFEF757FDFEF745FD10BD10B50446CC
:1034E000FEF72CFD7820FFF7B9FFFEF74BFD4020DB
:1034F000FFF7B4FFFEF746FD2046FFF7AFFFFEF7EC
:1035000041FDFEF72FFD10BD490050EAC12018BF54
:1035100004204A0D18BF40F0010040F2FF72B2EBE8
:10352000515F08BF40F00200012808BF0520704726
:1035300030380A2801D20120704700207047014628
:1035400000BF70472DE9FC410646002583480088EE
:1035500000F4004000287DD0002080490988C1F394
:103560000E017F4A505411467EA0FCF7D9FE7EA181
:103570007B48FDF7A5F820B120217D48FEF7D8FC57
:10358000E5E07CA17648FDF79BF820B12021784842
:10359000FEF7D0FCDBE079A17148FDF791F820B18E
:1035A00040217348FEF7C4FCD1E075A16C48FDF7DB
:1035B00087F820B140216E48FEF7BCFCC7E072A13D
:1035C0006748FDF77DF800284CD0002571A16448BC
:1035D000FDF770F8044610E0012D02D0022D04D151
:1035E00001E0274601E0A04600BF00BF681CC5B24D
:1035F00068A10020FDF75EF80446002CECD143469C
:103600003A4665A14846FCF797FE142267A168A0D8
:1036100000F0DCF9142265A166A000F0D7F91422AD
:1036200062A167A000F0D2F900BFC8225FA167A025
:1036300000F0CCF90028F8D100BF4FF4FA7268A16D
:10364000484600F0C3F90028F7D100BF142265A155
:1036500066A000E07FE000F0B9F90028F6D1FEF79F
:103660001BFD74E064A13E48FDF72AF800284FD006
:10367000002548A13A48FDF71DF8044633E0072D20
:1036800029D2DFE805F028040A10161C2200204683
:10369000FDF702F85B4988801DE02046FCF7FCFF3F
:1036A0005849887117E02046FCF7F6FF5549C87164
:1036B00011E02046FCF7F0FF524908700BE020466D
:1036C000FCF7EAFF4F49487005E02046FCF7E4FFAD
:1036D0004C49887000BF00BF681CC5B22DA10020F6
:1036E000FCF7E8FF0446002CC9D1464880784549DC
:1036F0004978DFF810C1CDE900109CF800309CF843
:1037000007209CF80610BCF80400FFF7C1F81EE083
:103710003DA11348FCF7D4FF30B14FF4806210494B
:103720003C48FFF7DDF912E03BA10D48FCF7C8FF6C
:1037300048B14FF480620A493948FFF7D1F90020B7
:103740003849087003E0064906A0FCF7E9FD16B108
:10375000002002490880BDE8FC8100003200002002
:10376000F80A0020257300004F50454E000000006D
:10377000000C0140434C4F53450000004E4F570092
:1037800053544F50000000004C494E4B5749464996
:10379000000000002D00000041542B43574A4150C7
:1037A0003D222573222C2225732200004F4B00005E
:1037B0004154000041542B43574D4F44453D330085
:1037C00041542B4349504D55583D310041542B43F2
:1037D00049505345525645523D312C3839393900FC
:1037E000474F5400415049500000000041542B43C2
:1037F00049465352000000005345545F54494D451B
:10380000000000002C1700205345545F574F524BC7
:1038100000000000007900085345545F4C4F5400ED
:1038200000800008F60400202DE9F041064600243F
:103830000027FEF751FCFEF72FFC2048008800F41B
:103840000040002837D000201C490988C1F30E0130
:103850001B4A505431461046FCF732FF074619A167
:103860001748FCF72DFF00B318A11548FCF722FFFD
:10387000054617E0012C01D0052C0CD108232A465F
:1038800000210846FEF790FD41F2883000F0FAF87A
:10389000052C00D108E0601CC4B20CA10020FCF78C
:1038A00009FF0546002DE5D105E00823044A002163
:1038B0000846FEF779FD3846BDE8F0813200002069
:1038C000F80A00204150495000000000220000008A
:1038D00010B514220FA110A000F078F814220DA149
:1038E0000EA000F073F814220AA10FA000F06EF8E9
:1038F00000BFC82207A10FA000F068F80028F8D187
:1039000000BF142210A112A000F060F80028F8D126
:1039100010BD00004F4B00004154000041542B43A8
:10392000574D4F44453D330041542B4349504D556D
:10393000583D310041542B4349505345525645524E
:103940003D312C38393939004150495000000000D0
:1039500041542B43494653520000000010B500BFAC
:103960001748008800F040000028F9D02B201449A7
:10397000091D08800F2000F085F800BF104800885E
:1039800000F040000028F9D02B200D49091D0880C7
:103990000F2000F077F800BF0948008800F04000D1
:1039A0000028F9D02B200649091D08804FF4FA7031
:1039B00000F068F8142203A103A000F007F810BD7E
:1039C000004400404F4B0000415400002DE9F041FD
:1039D00006460D461446002700201349088031464C
:1039E00012A000F077FBE5B1DCB113E00A2000F093
:1039F00049F80D48008800F4004058B12846FFF708
:103A000013FF20B129460BA0FCF78AFC06E000203A
:103A100005490880601E80B2041EE7D100BF04B9CA
:103A200001273846BDE8F0813200002025730D0AD9
:103A30000000000061636B3A25730D0A000000006E
:103A400010B56FF00400FFF745F90A4800680A490D
:103A5000B0FBF1F0094908700846007800EB40011E
:103A6000C1EBC0104FF6FF7101EAC00004490880A5
:103A700010BD00000000002000127A001400002099
:103A8000160000200146114A12884A434FF0E023F5
:103A90005A6100229A611A46126942F001021A61C3
:103AA00000BF4FF0E022106900F001021AB100F4EB
:103AB0008032002AF5D04FF0E022126922F0010294
:103AC0004FF0E0231A6100229A617047160000202F
:103AD00000BF054A128802F04002002AF9D0C2B2A3
:103AE000014B1B1D1A807047003801401CB5FFF7C1
:103AF000A7FF4FF4A060FEF7C5FA4FF4E13000F0E5
:103B000009FB4FF4E130FFF7F5FA13480068134959
:103B1000B0FBF1F0C4B21248416820468847052046
:103B20002F2114230D22CDE90010014640F2E4704C
:103B3000FEF7AEFEFEF750FAFFF776FCFEF7CCFA82
:103B4000FFF7C6FE06E0FEF7A7FA0120FFF7FAFC32
:103B500000F016F8F7E700000000002040420F00D8
:103B60003405002010B50246012000E050430B1E32
:103B7000A1F10104E1B2F9D110BD01460868704716
:103B80002DE9F04F85B00020049000248346039077
:103B900002908246019020200490FEF79DFA0022B8
:103BA00011461046FEF736FB012200211220FEF7D7
:103BB00031FB022200212420FEF72CFB03220021EE
:103BC0003620FEF727FB042200214820FEF722FBC7
:103BD000052200215A20FEF71DFBFE48817804983B
:103BE00081427DD01023FCA202210020FEF7DCFBE5
:103BF0001023FCA206210020FEF7D6FBF5488078B2
:103C0000049010200090F3488288042302210020B1
:103C1000FEF786FB10200090EE48827902231946B9
:103C20002820FEF77DFB10200090EA48C27902238D
:103C300019464020FEF774FBE648007A072836D282
:103C4000DFE800F0040B121920272E001023E8A251
:103C500004210020FEF7A8FB29E01023E7A204219D
:103C60000020FEF7A1FB22E01023E7A204210020A0
:103C7000FEF79AFB1BE01023E6A204210020FEF7CA
:103C800093FB14E01023E7A204210020FEF78CFB35
:103C90000DE01023E6A204210020FEF785FB06E0DC
:103CA0001023E6A204210020FEF77EFB00BF00BF28
:103CB00010200090C7480278022306210020FEF75A
:103CC0002FFB10200090C3484278022306211820C1
:103CD000FEF726FB10200090BE488278022300E009
:103CE00003E006213020FEF71BFB40F6B830FFF75B
:103CF000C9FEFEF7D1F91422D349D448FEF7DCFE01
:103D0000D3A1D148FCF7D6FC054626E0012C06D00D
:103D1000022C09D0032C0CD0042C16D10FE028461D
:103D2000FCF7BAFCC6B210E02846FCF7B5FCC7B2F7
:103D30000BE02846FCF7B0FC00F0FF0805E0284641
:103D4000FCF7AAFC00F0FF0900BF00BF601CC4B272
:103D5000BFA10020FCF7AEFC0546002DD6D19D4842
:103D60000078B04207D19B484078B84203D1402147
:103D7000B848FEF7DDF897480078404507D19548E8
:103D80004078484503D14021B248FEF7D3F80622D7
:103D900000210846FEF73EFA072200211220FEF716
:103DA00039FA022200212420FEF734FA03220021EE
:103DB0003620FEF72FFA082200214820FEF72AFAC3
:103DC000042200215A20FEF725FA052200215A205C
:103DD000FEF720FA1023A0A202210020FEF7E4FA49
:103DE000102002233246194600900020FEF798FA70
:103DF000102002233A46194600901920FEF790FA47
:103E00000E2204210020FEF705FA102392A20621BB
:103E10000020FEF7C9FA1020022342460621009036
:103E20000020FEF77DFA102002234A46062100906A
:103E30001920FEF775FA40F6B830FFF723FEFEF7BB
:103E40002BF90024162286498648FEF735FE80A10C
:103E50008348FCF72FFC05462CE0062C22D2DFE835
:103E600004F02103090F151B2846FCF715FC00F090
:103E7000FF0B17E02846FCF70FFCC0B2039011E0DF
:103E80002846FCF709FC00F0FF0A0BE02846FCF787
:103E900003FCC0B2019005E02846FCF7FDFBC0B270
:103EA000029000BF00BF601CC4B269A10020FCF7F3
:103EB00001FC0546002DD0D16B4801780298814263
:103EC00031D0444841780398081A42490978A1EB57
:103ED0000B01C1EB011100EB810090FBFAF10AFB31
:103EE000110020B940215B48FEF722F81BE0394859
:103EF00041780398081A37490978A1EB0B01C1EB07
:103F0000011100EB810090FBFAF10AFB110101980D
:103F1000814208D140214F48FEF70CF85248007802
:103F2000401C51490870062200210846FEF772F92C
:103F3000072200211220FEF76DF903220021242020
:103F4000FEF768F9092200213620FEF763F9042202
:103F500000214820FEF75EF9052200215A20FEF7D5
:103F600059F9102002235246002100906220FEF7EA
:103F7000D7F9102200217220FEF74CF90622022107
:103F80000020FEF747F9072202211220FEF742F92E
:103F9000022211462420FEF73DF90D22022136208F
:103FA000FEF738F9042202214820FEF733F90522F2
:103FB00002215A20FEF72EF9102002230090194604
:103FC0006220019AFEF7ACF9102202217220FEF75E
:103FD00021F94BE0F80E0020202020202D20202D5C
:103FE0002020000020203A20203A2020000000005D
:103FF00053756E6461792020200000004D6F6E645F
:104000006179202020000000547565736461792077
:10401000202000005765646E65736461792020205C
:1040200000000000546875727364617920202000DC
:104030004672696461792020200000005361747524
:104040007264617920202000020F002000790008AE
:104050002D000000000C014020203A20200000002C
:10406000160F002000800008F6040020062204211C
:104070000020FEF7CFF8072204211220FEF7CAF82D
:104080000F2204212420FEF7C5F812220421362035
:10409000FEF7C0F8042211464820FEF7BBF80522BF
:1040A00004215A20FEF7B6F81020022300900421C4
:1040B0006220029AFEF734F90F2204217220FEF7E3
:1040C000A9F840F6B830FFF7DDFCFDF7E5FF05B0D5
:1040D000BDE8F08F0FB438B505A800900B48009AE2
:1040E0000499FCF70BF90020009000BF0848FDF789
:1040F000EFFD0028FAD10548FCF7F4FAC4B22146D6
:104100000348FEF770FF38BC5DF814FBF80600208A
:104110008000024010B586B00446012144F204003C
:10412000FEF7A4F94FF40070ADF8140003208DF8E9
:10413000160018208DF8170005A91C48FDF76DFE24
:104140004FF48060ADF8140004208DF8170005A925
:104150001648FDF762FE25208DF8000003208DF83B
:1041600001008DF8020001208DF803006846FDF77C
:1041700051FF01940020ADF80800ADF80A00ADF839
:104180000C00ADF810000C20ADF80E0001A9084895
:10419000FFF7D6F8012240F225510548FFF7AAF8AB
:1041A00001210348FFF718F806B010BD00080140D0
:1041B0000038014030B595B0054613AB12AA09A9E5
:1041C000284600F03BFA044614B1204615B030BD35
:1041D0000020149026E0224909689DF8502001EB48
:1041E000C20113AB11AA486801A900F027FA0446DE
:1041F0000CB12046EAE709A901A800F0B7FC60B9B4
:104200009DF844009DF84810884201DD0220DDE75A
:104210009DF85000124988750AE09DF85000401C36
:10422000C0B214900E48007D9DF850108842D2DC38
:1042300000BF0B48007D9DF85010884201D104203A
:10424000C4E714A9284600F0D9FA04460CB1204668
:10425000BCE79DF85000024948750020B6E7000011
:10426000340500202DE9F0419AB000269C48847D59
:10427000007DA04202DC1AB0BDE8F08198490968CF
:1042800001EBC40106AB07AA486808A900F0D6F9FB
:1042900008A994A0FCF744F8002544E09048008B5E
:1042A0000121A9400840D8B1222190A0FCF738F89C
:1042B000284600F029FB8A492431471839468CA04A
:1042C000FCF72EF8222189A0FCF72AF8284600F0F6
:1042D0001BFB83492431084410A941F8250018E04C
:1042E000284600F011FB7E492431085810A941F8F6
:1042F00025007B48C07D30B910A850F825107DA05E
:10430000FCF70EF805E010A850F825107AA0FCF78D
:1043100007F89DF81C00401EA84202D078A0FBF7C9
:10432000FFFF681CC5B29DF81C008542B6DB75A076
:10433000FBF7F6FF00F038FB6948407D0B280DD2F3
:10434000DFE800F0060D151E27323F4E5F72870032
:104350006349096851F834008047064690E0604A96
:10436000126852F8341010988847064688E05C4B73
:104370001B6853F83420DDE91001904706467FE0C2
:10438000574F3F6857F8343010A807C8984706467B
:1043900076E0DFF84CC1DCF800C05CF8347010A89F
:1043A0000FC8B84706466BE01498DFF834C1009098
:1043B000DCF800C05CF8347010A80FC8B847064697
:1043C0005EE0DDE91401DFF818C1CDE90001DCF899
:1043D00000C05CF8347010A80FC8B84706464FE01C
:1043E000DDE914121698DFF8F8C0CDE9001202904A
:1043F000DCF800C05CF8347010A80FC8B847064657
:104400003EE0DDE91423DDE91610DFF8D4C0CDE984
:104410000023CDE90210DCF800C05CF8347010A86D
:104420000FC8B84706462BE0DDE9163218991598F3
:10443000CDE90232049101901498DFF8A4C00090F5
:10444000DCF800C05CF8347010A80FC8B847064606
:1044500016E0DDE91623DDE91810CDE90223CDE9E8
:104460000410DDE91401DFF878C0CDE90001DCF8C3
:1044700000C05CF8347010A80FC8B847064600BFEB
:1044800000BF00F051FA9DF8180001280CD1144823
:10449000C07D20B931461CA0FBF742FF07E0314642
:1044A0001BA0FBF73DFF02E018A0FBF739FF0C480B
:1044B00090F8EC0088B10A48D0F8F0000A21B0FB6F
:1044C000F1F201FB12070648D0F8F000B0FBF1F85A
:1044D0003A46414611A0FBF723FF00BFCBE60000A0
:1044E000340500200D0A2573280000002563000014
:1044F00025730000256C7500305825580000000019
:104500002C000000290000003D256C753B0D0A00C1
:104510003D305825583B0D0A0000000046756E637B
:1045200074696F6E2052756E2054696D653A25640A
:104530002E2531646D730D0A00000000F0B50346AE
:104540001546002000220026002455E01F782C2F5D
:1045500001D104B901221F78292F01D01F780FB98A
:1045600004B94AE0002E34D11F78302F02DB1F78C7
:10457000392F11DD1F78612F02DB1F78662F0BDDCD
:104580001F78412F02DB1F78462F05DD1F78582F3B
:1045900002D01F78782F0CD102B12EE01F78612F46
:1045A00003DB1F78203F0F7001E01F780F70491C5C
:1045B0001FE01F78222F04D102B11EE00126012442
:1045C00017E01F78202F14D01F782C2F11D0FF2632
:1045D00013E01F78222F00D1002402B10DE044B176
:1045E0001F785C2F02D15B1C471CF8B21F780F703C
:1045F000491C471CF8B25B1CA8E700BF00270F70DE
:104600002E70F0BD10B50446002010700BE020782D
:104610000870641C491C1078401C10701078984277
:1046200001DB012010BD2078202802D0207800284E
:10463000EDD10020087000BFF4E700002DE9FF4F26
:1046400085B0804689460027002004900390012011
:1046500002904FF0000B002544461DE020782028F2
:1046600016D005F07F00052812DA0DB945F0800557
:1046700005F07F00042803D120782A2800D00EE01E
:10468000207805F07F010DF80100681CC5B202E03A
:10469000852D00D103E0641C20780028DED100BF06
:1046A0008DB1002005F07F010DF8010051A1684691
:1046B00000F05CFA18B900210898017002E00121AD
:1046C0000898017000254FF0000A444614E0641C6D
:1046D0000AF1010000F0FF0A2078202802D020789B
:1046E0002A2809D1204600F0D1F90646282E03D009
:1046F0002A2E01D0CDF810A02078282802D02078CA
:104700000028E4D14446049810B10498401C0444A5
:104710004FF0000A002654E0207810B94FF0010A4B
:1047200050E02078282803D116B9781CC7B213E0CE
:104730002078292808D13EB917B1781EC7B201E008
:104740004FF0010A47B93DE02078222804D10EB984
:10475000012000E00020064647B9207820282FD00D
:10476000207889F8000009F1010929E020782C2837
:1047700004D101200290681CC5B214E020782028E2
:1047800011D0207828280ED04DB9BBF1050F06DADC
:1047900020780DF80B000BF1010000F0FF0B0298E0
:1047A000401CC0B20290012F0AD10298022807D102
:1047B0000298401CC0B202900398401CC0B2039003
:1047C000641CA9E700BF0398012809D100200DF857
:1047D0000B0008A1684600F0C9F908B90020039051
:1047E000079903980870002089F80000504609B026
:1047F000BDE8F08F766F6964000000002DE9F0439A
:10480000B5B005460F460024002604E000213D48CF
:104810008155701CC6B20A2EF8DB06E06D1C2878A4
:1048200018B9012035B0BDE8F08328782828F5D1E3
:104830006D1C61E034AA69462846FFF77FFE0646F4
:1048400035449DF8D00020B1012827D0FF284CD155
:1048500049E09DF8000000B333A9684600F021F953
:1048600006460EB10220DDE7204600F04DF825494E
:104870000A31339A0A50A1F12400008B0121A14092
:10488000884320491A39088304211E480155601CB9
:10489000C4B20A2C01DD0320C4E726E0684600F01C
:1048A00081F9401C00F0FF08204600F02DF8154962
:1048B0000A3100EB01094946684600F068F91148E1
:1048C0001A38018B0120A040014388B20D491A39E2
:1048D00008830C4800F80480601CC4B20A2C01DD77
:1048E00003209FE701E002209CE700BF28782928E9
:1048F00001D0287800B900E09CE700BF3C700020A0
:1049000090E700004E05002002460020002105E04F
:10491000044B5B5C0344D8B24B1CD9B29142F7DB29
:10492000704700004E0500204FF08040008A00F0E4
:10493000010040B10B48D0F8F0004FF6FF71084479
:104940000849C1F8F0000748D0F8F0004FF0804166
:10495000898C08440349C1F8F0000846D0F8F000FB
:10496000704700003405002010B5044604EBC40075
:1049700000EB04100122C2EB800081B24FF47A7088
:10498000FEF7E0FA01200149C87510BD340500208A
:1049900010B50246012000E050430B1EA1F10104B6
:1049A000E1B2F9D110BD00004FF08040008A20F044
:1049B00001004FF0804108824FF6FF70888500208B
:1049C00088840249C1F8F0007047000034050020D7
:1049D00070B51D48008800F40040002833D01A4804
:1049E00005780020194948551948816817488847B3
:1049F00004461CB91649C868804721E0134800F0F6
:104A0000DDF80546012D00D02C46CCB1012C06D096
:104A1000022C08D0032C0AD0042C10D10BE00DA0DE
:104A2000FBF77EFC0BE00EA0FBF77AFC07E00FA083
:104A3000FBF776FC03E010A0FBF772FC00BF00BFA1
:104A400000200149088070BD1C0000202C060020B9
:104A500034050020BAAFCAFDB4EDCEF3210D0A0033
:104A6000B2CECAFDB4EDCEF3210D0A00B2CECAFD1E
:104A7000CCABB6E0210D0A00CEB4D5D2B5BDC6A5EB
:104A8000C5E4B5C4BAAFCAFD210D0A000146491CF0
:104A900000E0491C0878202801D10029F9D10878C4
:104AA00070472DE9F04307460E4600254FF00A08EF
:104AB0003C46002030601FE02078392802DC207856
:104AC00030280ADA2078462802DC2078412804DAE7
:104AD0002078582809D1012D07D12078412801DB01
:104AE0004FF01008681CC5B205E0207800B904E05A
:104AF0000120BDE8F083641CDEE700BF3C46B8F14E
:104B0000100F0FD1032D01DA0220F2E720783028B0
:104B100006D16078582803D1A41CA81EC5B204E0B1
:104B20000320E6E70DB90420E3E71BE00DB1681EA2
:104B3000C5B22078392806DC2078302803DB2078BD
:104B4000A0F1300902E02078A0F13709294640465B
:104B5000FFF71EFF316809FB00103060641C2078ED
:104B600000B900E0E2E700BF0020C2E702460AE029
:104B700010780B78984201D001207047107800B966
:104B800002E0521C491CF3E700BF0020F5E706E0F5
:104B900002780A70027802B902E0401C491CF7E76B
:104BA00000BF70470146002005E00A7802B903E023
:104BB000421CD0B2491CF8E700BF704710B58CB05A
:104BC00004461E230BAA03A92046FFF71BFD0090F5
:104BD000009810B101200CB010BD9DF82C000444C9
:104BE00000200B900EE040489DF82C2050F8221039
:104BF00003A8FFF7BBFF00B908E09DF82C00401C9C
:104C0000C0B20B909DF82C000728ECD300BF9DF894
:104C10002C00072863D2DFE800F004053C5E6564E1
:104C2000630000BF31A0FBF77BFB31A0FBF778FBF3
:104C30003FA0FBF775FB4EA0FBF772FB5CA0FBF7F8
:104C40006FFB6BA0FBF76CFB79A0FBF769FB86A001
:104C5000FBF766FB8BA0FBF763FB90A0FBF760FB09
:104C600094A0FBF75DFB99A0FBF75AFB9EA0FBF716
:104C700057FBA4A0FBF754FBB0A0FBF751FBBDA072
:104C8000FBF74EFBC8A0FBF74BFBD4A0FBF748FBA0
:104C90009AE216A0FBF744FBE0A0FBF741FB0020E3
:104CA0000B900EE0ED4800689DF82C2000EBC20050
:104CB0004168EBA0FBF734FB9DF82C00401CC0B210
:104CC0000B90E648007D9DF82C108842EADC07A096
:104CD000FBF726FB78E205A0FBF722FBC4E171E2BB
:104CE00045E219E2ECE10000F80400200D0A0000A2
:104CF0002D2D2D2D2D2D2D2D2D2D2D2D2D2D2D2DE4
:104D00002D2D2D2D2D2D2D2D55534D4152542056E9
:104D1000332E312D2D2D2D2D2D2D2D2D2D2D2D2DB8
:104D20002D2D2D2D2D2D2D2D2D2D2D200D0A00005D
:104D30002020202055534D415254CAC7D3C9414C5D
:104D400049454E54454BBFAAB7A2B5C4D2BBB8F62D
:104D5000C1E9C7C9B5C4B4AEBFDAB5F7CAD4BBA5FB
:104D6000BDBBD7E9BCFE2CCDA8B9FD200D0A0000C3
:104D7000CBFC2CC4E3BFC9D2D4CDA8B9FDB4AEBF1F
:104D8000DAD6FACAD6B5F7D3C3B3CCD0F2C0EFC3E4
:104D9000E6B5C4C8CEBACEBAAFCAFD2CB2A2D6B45C
:104DA000D0D02ED2F2B4CB2CC4E3BFC90D0A000080
:104DB000D2D4CBE6D2E2B8FCB8C4BAAFCAFDB5C40F
:104DC000CAE4C8EBB2CECAFD28D6A7B3D6CAFDD76F
:104DD000D62831302F3136BDF8D6C629A1A2D7D674
:104DE000B7FBB4AEA1A2BAAFCAFDC8EB0D0A000072
:104DF000BFDAB5D8D6B7B5C8D7F7CEAAB2CECAFDF6
:104E0000292CB5A5B8F6BAAFCAFDD7EEB6E0D6A73D
:104E1000B3D63130B8F6CAE4C8EBB2CECAFD2CB274
:104E2000A2D6A7B3D6BAAFCAFDB7B5200D0A000007
:104E3000BBD8D6B5CFD4CABE2ED0C2D4F6B2CECA55
:104E4000FDCFD4CABEBDF8D6C6C9E8D6C3B9A6C47C
:104E5000DC2CD0C2D4F6BDF8D6C6D7AABBBBB9A647
:104E6000C4DC2E0D0A000000BCBCCAF5D6A7B3D620
:104E70003A7777772E6F70656E6564762E636F6D07
:104E80000D0A000055534D415254D3D037B8F6CFD8
:104E9000B5CDB3C3FCC1EE3A0D0A00003F3A202065
:104EA00020202020BBF1C8A1B0EFD6FAD0C5CFA2F8
:104EB0000D0A000068656C703A202020BBF1C8A183
:104EC000B0EFD6FAD0C5CFA20D0A00006C6973749A
:104ED0003A202020BFC9D3C3B5C4BAAFCAFDC1D0E0
:104EE000B1ED0D0A0A00000069643A20202020205C
:104EF000BFC9D3C3BAAFCAFDB5C44944C1D0B1ED2F
:104F00000D0A0A006865783A20202020B2CECAFD3A
:104F10003136BDF8D6C6CFD4CABE2CBAF3B8FABF64
:104F2000D5B8F12BCAFDD7D6BCB4D6B4D0D0BDF815
:104F3000D6C6D7AABBBB0D0A0A0000006465633A57
:104F400020202020B2CECAFD3130BDF8D6C6CFD445
:104F5000CABE2CBAF3B8FABFD5B8F12BCAFDD7D662
:104F6000BCB4D6B4D0D0BDF8D6C6D7AABBBB0D0A48
:104F70000A00000072756E74696D653A312CBFAA23
:104F8000C6F4BAAFCAFDD4CBD0D0BCC6CAB13B3090
:104F90002CB9D8B1D5BAAFCAFDD4CBD0D0BCC6CA13
:104FA000B13B0D0A0A000000C7EBB0B4D5D5B3CCB5
:104FB000D0F2B1E0D0B4B8F1CABDCAE4C8EBBAAF20
:104FC000CAFDC3FBBCB0B2CECAFDB2A2D2D4BBD81C
:104FD000B3B5BCFCBDE1CAF82E0D0A002D2D2D2D58
:104FE0002D2D2D2D2D2D2D2D2D2D2D2D2D2D2D2DF1
:104FF0002D2D2D2D2D2D414C49454E54454B2D2DFC
:105000002D2D2D2D2D2D2D2D2D2D2D2D2D2D2D2DD0
:105010002D2D2D2D2D2D2D200D0A00002D2D2D2D6A
:105020002D2D2D2D2D2D2D2D2D2D2D2D2D2D2D2DB0
:105030002D2D2D2D2DBAAFCAFDC7E5B5A52D2D2DD2
:105040002D2D2D2D2D2D2D2D2D2D2D2D2D2D2D2D90
:105050002D2D2D2D2D2D2D2D200D0A003405002058
:1050600025730D0A0000000059A0FBF759F9002034
:105070000B901AE0664909689DF82C2001EBC201EB
:1050800001AB02AA486803A9FFF7D8FA6048006894
:105090009DF82C1050F8312003A95EA0FBF740F9D1
:1050A0009DF82C00401CC0B20B905948007D9DF823
:1050B0002C108842DEDCAFF2CC30FBF731F983E014
:1050C000AFF2D830FBF72CF90BAA03A92046FFF763
:1050D00035FA9DF82C00C8B9694603A8FFF7E1FC32
:1050E0000B909DF82C0020B94FA00099FBF718F900
:1050F0000EE09DF82C00042801D002206BE54DA0A5
:10510000FBF70EF901204249C87501E0022062E573
:1051100047A0FBF705F957E045A0FBF701F90BAAFB
:1051200003A92046FFF70AFA9DF82C00C8B9694682
:1051300003A8FFF7B6FC0B909DF82C0020B942A005
:105140000099FBF7EDF80EE09DF82C00042801D043
:10515000022040E53FA0FBF7E3F800202C49C8758A
:1051600001E0022037E532A0FBF7DAF82CE030A0AE
:10517000FBF7D6F80BAA03A92046FFF7DFF99DF845
:105180002C00C8B9694603A8FFF78BFC0B909DF86B
:105190002C0078B91E49009881F8EC00084690F878
:1051A000EC0018B130A0FBF7BBF807E035A0FBF727
:1051B000B7F803E002200EE502200CE51CA0FBF787
:1051C000AFF801E0012006E500BF002003E5000084
:1051D0002D2D2D2D2D2D2D2D2D2D2D2D2D2D2D2DFF
:1051E0002D2D2D2D2D2D2D2D2DBAAFCAFD2049444D
:1051F000202D2D2D2D2D2D2D2D2D2D2D2D2D2D2DEC
:105200002D2D2D2D2D2D2D2D2D2D2D2D200D0A004B
:105210003405002025732069642069733A0D0A3033
:1052200058253038580D0A004845583A3058255806
:105230000D0A00003136BDF8D6C6B2CECAFDCFD4B5
:10524000CABE210D0A0000004445433A256C750D85
:105250000A0000003130BDF8D6C6B2CECAFDCFD4A8
:10526000CABE210D0A00000052756E2054696D659A
:105270002043616C63756C6174696F6E204F4E0DD5
:105280000A00000052756E2054696D652043616C00
:1052900063756C6174696F6E204F46460D0A00009D
:1052A0000160704710B500290AD00878002807D09F
:1052B00005487844FCF72CF8002801D0002010BDE8
:1052C0000248784410BD00002E0A0000260A0000A3
:1052D00010B500290AD00878002807D0054878447E
:1052E000FCF716F8002801D0002010BD02487844D1
:1052F00010BD0000120B00000A0B0000FBF738BDC8
:105300000000000000000000002F00000000070067
:10531000070000147F147F1400242A7F2A120062E1
:10532000640813230036495522500000050300008D
:1053300000001C224100000041221C000014083E15
:1053400008140008083E0808000000A060000008DB
:10535000080808080000606000000020100804022F
:10536000003E5149453E0000427F400000426151ED
:105370004946002141454B31001814127F10002787
:1053800045454539003C4A4949300001710905034A
:1053900000364949493600064949291E000036367B
:1053A00000000000563600000008142241000014DE
:1053B00014141414000041221408000201510906BB
:1053C00000324959513E007C1211127C007F49493C
:1053D0004936003E41414122007F4141221C007F6D
:1053E00049494941007F09090901003E4149497A7B
:1053F000007F0808087F0000417F410000204041F5
:105400003F01007F08142241007F40404040007F60
:10541000020C027F007F0408107F003E4141413EA4
:10542000007F09090906003E4151215E007F0919EC
:1054300029460046494949310001017F0101003FE9
:105440004040403F001F2040201F003F4038403F69
:1054500000631408146300070870080700615149CD
:10546000454300007F41410000552A552A55000060
:1054700041417F00000402010204004040404040DE
:10548000000001020400002054545478007F484476
:10549000443800384444442000384444487F0038AD
:1054A0005454541800087E0901020018A4A4A47CD6
:1054B000007F080404780000447D400000408084A0
:1054C0007D00007F102844000000417F4000007CE8
:1054D00004180478007C08040478003844444438F4
:1054E00000FC242424180018242418FC007C080440
:1054F000040800485454542000043F444020003C19
:105500004040207C001C2040201C003C4030403C9F
:10551000004428102844001CA0A0A07C004464542F
:105520004C44141414141414000000000000000073
:105530000000000000000000000000F80000000073
:10554000000000333000000000100C06100C0600B4
:10555000000000000000000040C07840C07840001B
:10556000043F04043F040400007088FC083000007D
:10557000001820FF211E0000F008F000E0180000D5
:1055800000211C031E211E0000F00888700000008E
:105590001E2123241927211010160E0000000000E0
:1055A0000000000000000000000000E018040200FD
:1055B000000000071820400000020418E00000006E
:1055C0000040201807000000404080F0804040006C
:1055D0000202010F01020200000000F000000000C2
:1055E0000101011F01010100000000000000000096
:1055F00080B070000000000000000000000000000B
:105600000001010101010101000000000000000093
:10561000003030000000000000000000806018042E
:10562000006018060100000000E010080810E0000B
:10563000000F102020100F00001010F800000000D4
:105640000020203F2020000000700808088870001B
:10565000003028242221300000300888884830009B
:105660000018202020110E000000C02010F80000BB
:1056700000070424243F240000F808888808080054
:105680000019212020110E0000E010888818000069
:10569000000F112020110E0000380808C83808003B
:1056A0000000003F000000000070880808887000BB
:1056B000001C222121221C0000E010080810E0003C
:1056C0000000312222110F00000000C0C0000000C5
:1056D00000000030300000000000008000000000EA
:1056E00000008060000000000000804020100800E2
:1056F00000010204081020004040404040404000AB
:105700000404040404040400000810204080000085
:105710000020100804020100007048080808F0008A
:105720000000003036010000C030C828E810E0005A
:105730000718272423140B000000C038E0000000E5
:10574000203C23020227382008F88888887000004F
:10575000203F202020110E00C03008080808380023
:10576000071820202010080008F808080810E0009A
:10577000203F202020100F0008F88888E80810003B
:10578000203F20202320180008F88888E80810000F
:10579000203F200003000000C03008080838000047
:1057A00007182020221E020008F808000008F80848
:1057B000203F210101213F20000808F808080000CF
:1057C0000020203F2020000000000808F808080002
:1057D000C08080807F00000008F888C0281808007A
:1057E000203F20012638200008F8080000000000B3
:1057F000203F20202020300008F8F800F8F80800AA
:10580000203F003F003F200008F830C00008F808A3
:10581000203F200007183F00E01008080810E000B3
:105820000F10202020100F0008F808080808F000CA
:10583000203F210101010000E01008080810E000ED
:105840000F18242438504F0008F888888888700082
:10585000203F2000030C3020007088080808380022
:105860000038202121221C00180808F80808180018
:105870000000203F2000000008F808000008F80899
:10588000001F202020201F000878880000C838084A
:10589000000007380E010000F80800F80008F800C2
:1058A000033C0700073C030008186880806818085C
:1058B00020302C03032C30200838C800C8380800DA
:1058C0000000203F2000000010080808C838080029
:1058D0002038262120201800000000FE02020200CD
:1058E0000000007F40404000000C30C0000000007D
:1058F000000000010638C00000020202FE000000A5
:10590000004040407F00000000000402020204004A
:105910000000000000000000000000000000000087
:10592000808080808080808000020204000000006F
:105930000000000000000000000080808080000067
:105940000019242222223F2008F800808000000055
:10595000003F112020110E00000000808080000018
:10596000000E112020201100000000808088F80027
:10597000000E112020103F20000080808080000059
:10598000001F222222221300008080F088888818BD
:105990000020203F202000000000808080808000C8
:1059A000006B94949493600008F80080808000005D
:1059B000203F210000203F20008098980000000038
:1059C0000020203F20200000000000809898000068
:1059D00000C08080807F000008F800008080800088
:1059E000203F24022D302000000808F800000000AD
:1059F0000020203F20200000808080808080800068
:105A0000203F20003F20003F8080008080800000F9
:105A1000203F210000203F20000080808080000087
:105A2000001F202020201F008080008080000000B8
:105A300080FFA12020110E000000008080808000E7
:105A4000000E112020A0FF808080800080808000D8
:105A500020203F2120000100000080808080800005
:105A60000033242424241900008080E0808000007A
:105A70000000001F202000008080000000808000C7
:105A8000001F202020103F20808080000080808028
:105A900000010E30080601008080008000808080B8
:105AA0000F300C030C300F000080800080808000DD
:105AB0000020312E0E312000808080000080808008
:105AC00080818E70180601000080808080808000B8
:105AD0000021302C2221300000000000807C0202D6
